:02000002D0002C
:1040000000400D0080610D00000005000E0005015C
:0840100004019301000000000F
:104018004C5D0D0009480A49884208B505D0094A8F
:10402800824202D0121A01F028FE0748074A0021EE
:10403800121A01F02DFE014808BD00BF80E30320DD
:10404800F0600D00E8E30320E8E30320F0E7032035
:1040580070B500F0BBFF074C074BE41AA408002515
:104068001E46A54204D056F8253098470135F8E792
:1040780070BD00BFEC600D00B8600D0000F036B8F0
:1040880008B500F06DF8BDE8084000F06DBF00F01D
:1040980089BA00F087BA00F08DBA00F08BBA0078C0
:1040A800B0FA80F0400970470123037070470000A0
:1040B80037B50D46044601F075F800952346034AC6
:1040C800012100F09EFE03B030BD00BF605D0D0011
:1040D80010B50C4601F066F82346034A0121BDE8F5
:1040E800104000F08EBE00BF775D0D0010B501F0E6
:1040F80059F8154C4FF4165101F048F800231A46A8
:104108001946606800F016FA00231A4619466068D6
:1041180000F0F0F9012000F0D0FE0022114660689E
:1041280000F0F0F9024610B9FF2100F0D6FE074A68
:104138000749084801F07AFA074A08490548BDE8DE
:10414800104001F073BA00BF50E50320B9400D00DC
:104158007A5D0D0058E50320D9400D00815D0D0002
:10416800704700F011B8000008B5024B1B689B6847
:10417800019308BD6802030008B5024B1B68DB68A1
:10418800019308BD6802030008B5024B1B681B6851
:10419800019308BD2C02030008B5024B1B68DB69BC
:1041A800019308BD3002030008B5024B1B681B6968
:1041B800019308BD6C02030008B5024B1B685B69DC
:1041C800019308BD6C02030008B5024B1B689B698C
:1041D800019308BD6C02030008B5024B1B685B6DB8
:1041E800019308BD6C02030008B5024B1B689B6D68
:1041F800019308BD6C02030008B5024B1B685B689D
:10420800019308BD1802030008B5024B1B689B68A0
:10421800019308BD1802030008B5024B1B685B69CF
:10422800019308BD1802030008B5024B1B685B68C0
:10423800019308BD4802030008B5024B1B689B6840
:10424800019308BD4802030008B5024B1B681B69AF
:10425800019308BD4802030008B5024B1B685B695F
:10426800019308BD4802030008B5024B1B681B6B8D
:10427800019308BD4802030008B5024B1B685B6C3C
:10428800019308BD4802030008B5024B1B68DB6CAC
:10429800019308BD4802030008B5024B1B685B6D1B
:1042A800019308BD4802030008B5024B1B68DB6E8A
:1042B800019308BD4802030008B5024B1B685B69FF
:1042C800019308BD6402030008B5024B1B689B6993
:1042D800019308BD6402030008B5024B1B681B6A02
:1042E800019308BD6402030008B5024B1B685B6AB2
:1042F800019308BD6402030008B5024B1B689B6A62
:10430800019308BD6402030008B5024B1B681B68D3
:10431800019308BD3C02030008B5024B1B68DB682B
:10432800019308BD3C02030008B5024B1B681B69DA
:10433800019308BD3C02030008B5024B1B685B698A
:10434800019308BD3C02030008B5024B1B689B693A
:10435800019308BD3C02030008B5024B1B68DB69EA
:10436800019308BD3C02030008B5024B1B689B6A19
:10437800019308BD3C02030008B5024B1B685B684B
:10438800019308BD3802030008B5024B1B689B69FE
:10439800019308BD3802030008B5024B1B68DB69AE
:1043A800019308BD3802030008B5024B1B68DB6A9D
:1043B800019308BD3802030008B5024B1B685B6B0C
:1043C800019308BD3802030008B5024B1B689B6BBC
:1043D800019308BD3802030008B5024B1B681B682F
:1043E800019308BD4C02030008B5024B1B685B68CB
:1043F800019308BD4C02030008B5024B1B681B69FA
:10440800019308BD4C02030008B5024B1B685B69A9
:10441800019308BD4C02030008B5024B1B689B6959
:10442800019308BD4C02030008B5024B1B68DB6909
:10443800019308BD4C02030008B5024B1B681B6AB8
:10444800019308BD4C02030008B5024B1B685B686A
:10445800019308BD6002030008B5024B1B689B6806
:10446800019308BD6002030008B5024B1B68DB68B6
:10447800019308BD6002030008B5024B1B689B69E5
:10448800019308BD6002030008B5024B1B68DB6995
:10449800019308BD6002030008B5024B1B681B6D41
:1044A800019308BD6002030008B5024B1B685B68F6
:1044B800019308BD2002030008B5034B1B68D3F81D
:1044C8008830019308BD00002002030008B5034BA3
:1044D8001B68D3F89430019308BD00002002030044
:1044E80008B5034B1B68D3F8A430019308BD00003E
:1044F8002002030008B5024B1B685B68019308BDE6
:104508004002030008B5024B1B689B68019308BD75
:104518004002030008B5024B1B68DB68019308BD25
:104528004002030008B5024B1B681B69019308BDD4
:104538004002030008B5024B1B685B69019308BD84
:104548004002030008B5024B1B689B69019308BD34
:104558004002030008B5024B1B68DB69019308BDE4
:104568004002030008B5024B1B681B6A019308BD93
:104578004002030008B5024B1B681B6B019308BD82
:104588004002030008B5024B1B685B6B019308BD32
:104598004002030008B5024B1B68DB6B019308BDA2
:1045A8004402030008B5024B1B681B68019308BD51
:1045B8001C02030008B5024B1B685B68019308BD29
:1045C8001C02030008B5024B1B685B6A019308BD17
:1045D8001C02030008B5024B1B68DB6A019308BD87
:1045E8001C020300002211464068FFF7BBBF0022EF
:1045F80011464068FFF7C6BF00224068FFF7BABF00
:10460800002281F001014068FFF7A4BF00231A4689
:1046180019464068FFF796BF00231A4619464068B6
:10462800FFF788BF002211464068FFF77BBF0022D2
:1046380011464068FFF766BF002202214068FFF775
:1046480069BF00231A464068FFF754BF024B032294
:104658005A60024A1A607047ECE30320905D0D002F
:10466800704710B50446FFF716FD204610BD000040
:1046780070B5084B0360044600250E4640F80C5FF1
:10468800FFF7F2FD30462671FFF786FDA56020464C
:1046980070BD00BFC45D0D00044B00204FF6FF72D3
:1046A800187058809A80FFF7FFBE00BFF4E303201C
:1046B80010B40468246BA4465DF8044B6047036893
:1046C8009B6C1847808E7047028FC08E101A7047F7
:1046D80013B502AB026803F8011DD468194601221C
:1046E800A04702B010BD10B503681B69044698477F
:1046F80028B1E38EE26B591CE186D05C10BD4FF007
:10470800FF3010BD10B503681B690446984718B1FF
:10471800E38EE26BD05C10BD4FF0FF3010BD7047E8
:1047280010B403460846DC6BD98E1A8F0368521AF8
:10473800DB6821445DF8044B1847A0F11000FFF72F
:10474800EFBFF0B503688DB01C265B6A04460F46C0
:104758001546984701233246002105A8029301F027
:1047680097FA8DF8146038460A268DF81560FFF719
:10477800C3FD1122ADF8160002213046FFF724FED2
:104788000028606124DB0422009202AB40F6FF712E
:10479800FFF7FAFDE0B995B10390ADF8100003A951
:1047A800E8B2FFF709FD98B90623009341F20B021E
:1047B80003AB40F6FF716069FFF7E6FD40B91C22C4
:1047C80005A96069FFF7D8FD10B96564012004E008
:1047D800236820465B6A984700200DB0F0BD10B5ED
:1047E80004464069002801DBFFF7D6FD4FF0FF3390
:1047F80063610023E386238710BD38B5C36B054684
:10480800C08E13B12C6C241A00E01C46944228BFB9
:1048180014462246184401F030FAEB8E2344EB8606
:10482800204638BD70B503681B6904460E46154618
:10483800984788B1236820461B699847E38EE16B47
:104848008542A8BF054619442A46304601F015FAA4
:10485800E38E2B44E38601E04FF0FF35284670BD18
:1048680070B50446054B44F8043B01F120050646A3
:104878000FCD0FC42B682370304670BD4C5F0D0000
:10488800F0B59446026889B0976A0A4A02921D1DDB
:104898008E4606460FCD03AC0FC42B682370BDF8B7
:1048A80038300093624602AB71463046B84709B0CB
:1048B800F0BD00BF4C5F0D00F0B50368B0F836E0FE
:1048C8009F6A0D4B89B000F12006044602930FCE73
:1048D80003AD0FC533682B70A38E0093724602ABED
:1048E800E16B2046B84723680546DB6920469847B0
:1048F800284609B0F0BD00BF4C5F0D00F0B5437805
:10490800022B8DB005460C46174601D1011D33E038
:104918000A2B35D11122002101A801F0B9F9AB68A1
:1049280043B9EB6833B94FF6FF702E69FFF7D4FC33
:1049380086421FD005F1080301AE05F1180E18686C
:104948005968324603C2083373451646F7D1062321
:1049580001A906A807AE8DF8143000F099FB0FCE18
:1049680004340FC43368237057B16888FFF7BCFC60
:10497800388005E005F11401204600F0BEFBF3E79E
:104988000DB0F0BD2DE9F0418EB00EAB0025064606
:104998001746084643F8345D2A462946FFF7ECFBDC
:1049A80000281FDB019BFBB15B69EBB102A800F09B
:1049B80061FB019B2A46586902A9FFF79FFF02A8DD
:1049C80000F078FB80B1336803ADD3F838800B4B27
:1049D80008930FCD09AC0FC42B6823703A4608A979
:1049E8003046C047044601E04FF0FF340198FFF716
:1049F800BBFB20460EB0BDE8F08100BF4C5F0D0048
:104A08002DE9F047D0F81480B8F1000F8CB00546B6
:104A18000C461746994600DB11B94FF0FF3035E0D8
:104A28004FF01C0A05AE52460021304601F030F91D
:104A3800CDF808A0B9F1000F14D04FF47A72B9FB81
:104A4800F2F1039102FB11914A4308230492009367
:104A580041F2060203AB40F6FF714046FFF794FCB3
:104A680008B113E0082002AB0193214603460096E3
:104A78003A466869FFF798FC041E06DB05F1340224
:104A880005F11C013046FFF739FF20460CB0BDE8A0
:104A9800F08738B5054614462B7D062B084611D1FC
:104AA8001C2313700A235370FFF726FC083424F8DC
:104AB800060C2B1D143553F8042B44F8042BAB4279
:104AC800F9D138BD042B0AD1102313700223537077
:104AD800FFF712FC60806868FFF7FEFB606038BD76
:104AE8002DE9F0438BB003AC1C25994606460F46CA
:104AF800904600212A46204601F0CAF82246BDF811
:104B080048104846FFF7C5FF9DF80D3043B18DE8C2
:104B180030000023424639467069FFF74DFC01E03A
:104B28004FF0FF300BB0BDE8F083F0B591B00C4604
:104B380006460021154609A81C221F4601F0A8F8C0
:104B480009AA00212046FFF7A4FF9DF82530022B73
:104B58002ED1002305930A9B0493DDB102A92846B0
:104B6800FFF732FBB0B910A941F8340D0298FFF7EE
:104B780033FB60B9039B53B1DA6812685178022994
:104B880003D152680AB1059201E01B68F3E7039864
:104B9800FFF72AFB002F4FF00803009318BF0322EA
:104BA80004AB08BF042200213046FFF7EDFB1EE0EE
:104BB8000A2B1AD104AC14220021204601F068F80F
:104BC8000BAB0FCB002F84E80F004FF014030093BA
:104BD80018BF0C22234608BF0D222921304608950C
:104BE800FFF7D2FB00EAE07001E04FF0FF3011B0B0
:104BF800F0BD000038B54FF47A7383600B4B03F1B6
:104C080008026C33002503614FF0FF33044645600A
:104C1800026043611C3000F02DFA4FF40073E58602
:104C28002587E56323646564204638BDCC5D0D00A7
:104C380010B590F8483004461BB1C06B08B1FFF7B7
:104C48002AFA0023E36384F848302364E386238741
:104C580010BD70B5044616460D46FFF7E9FF002360
:104C6800E66323643EB935B12846FFF712FA0123FB
:104C7800E06384F84830E36B03B12564206C0030AE
:104C880018BF012070BDF8B51746C26B05460C4623
:104C98001AB9016C09B1FFF7DCFF04340FCC05F138
:104CA80020060FC6236833700023AF86EB862B8758
:104CB800286CF8BD70B5C26B04461AB9016C09B10D
:104CC800FFF7C7FFE16B0023E386238741B1226C1E
:104CD80032B12068056B2046A8470028C8BF208746
:104CE800236820461B69BDE87040184710B5074B7C
:104CF80003F108026C33044602600361FFF76FFD9D
:104D08002046FFF795FF204610BD00BFCC5D0D0083
:104D180010B50446FFF7EAFF2046FFF7BCF9204626
:104D280010BD02464069002804DB012392F84420A4
:104D3800FFF7FBBE4FF0FF307047F8B506460D464B
:104D48008F180024BD420CD0336815F8011B9B68EE
:104D580030469847002801DB0444F3E7002C08BFDD
:104D680004462046F8BD70B505460C46084649B1CC
:104D780000F0BEFF2B68024621462846DB68BDE8E6
:104D88007040184770BD03689B68184738B50D21F7
:104D98000546FFF7F8FF0A2104462846FFF7F3FF08
:104DA800204438BD30B58BB00B4600218DF8241057
:104DB800012A98BF0A220DF12304B3FBF2F505FB83
:104DC800123303F0FF03092B94BF30333733DBB2C0
:104DD800214604F801392B46002DEED1FFF7C3FF19
:104DE8000BB030BD10B42AB903685DF8044B9B685A
:104DF800C9B21847D2B25DF8044BFFF7D3BFFFF72B
:104E0800F1BF0CB42DE9F04387B000AF07F13804C7
:104E1800054654F8049B3C600E4623464A46142136
:104E2800381DFFF7CFFB132805D8391D2846FFF793
:104E38009AFF044613E000F1080323F00703E8464D
:104E4800ADEB030D411C23464A4668463C60FFF71C
:104E5800B9FB69462846FFF786FF0446C5461EB1DA
:104E68002846FFF793FF044420461C37BD46BDE89B
:104E7800F04302B070470000014B024A1A607047C5
:104E8800FCE30320F15E0D00024B1A68024B1A6026
:104E9800704700BF80E3032000E4032010B5836857
:104EA800044613B1032201469847204610BD10B5A9
:104EB8000446FFF7F3FF204610BD10B50446FFF780
:104EC800DBFA844208D01CB1BDE81040FFF7C4BA31
:104ED800BDE81040FFF7C8BA10BD70B505460E46CC
:104EE8001446FFF7C9FA50B144EA062040EA0540E3
:104EF800FFF7AAFAE720BDE87040FFF7C5BA70BD12
:104F08000348044A04490023836000F02FBD00BF12
:104F180004E40320E8E30320B74E0D0008B50F4B67
:104F280033B100F03FF903681B69984700280DDC8E
:104F38000B4B33B100F09CF903681B6998470028B4
:104F480007DC084B43B1AFF3008008BDAFF3008026
:104F5800EEE7AFF30080F4E708BD00BF00000000F3
:104F6800000000000000000008B5FFF7D7FFFFF7BA
:104F780053F9014B186008BD48E7032007B5002323
:104F880000931A466FF07701FFF7A0FA03B05DF8B7
:104F980004FB000007B543880A2B08D0502B09D121
:104FA800094B1B683BB103B05DF804EB1847FFF7EA
:104FB800E5FF06E0002300931A466FF07701FFF73C
:104FC80085FA03B05DF804FB14E4032010B5FFF77D
:104FD80013F9044600F064FE074B13B12046AFF303
:104FE800008000210448FFF7D5FA00210348BDE8F6
:104FF8001040FFF761BA00BF000000009D4F0D0090
:10500800704710B50446FFF746F8204610BDF0B5C6
:10501800037D062B8DB00E4600F104074FF0000407
:1050280002D000F1080518E00CAD394605F8304DFE
:105038002F232A460A20FFF73FF9284600F058FE9A
:1050480033680246DB682946304698470FE024B1AA
:105058002E213046FFF797FE044415F8011D0A2259
:105068003046FFF7CCFEBD420444F0D120460DB0D7
:10507800F0BD000010B5054B0446112240F8043B72
:10508800002100F005FE204610BD00BF4C5F0D005A
:105098000346074A10B543F8042B01F1100251F8F2
:1050A800044B43F8044B9142F9D10A781A7010BDA9
:1050B8004C5F0D00037D042B01D1406808E0062BEE
:1050C8000AD1436853B1836843B1C36833B10069F7
:1050D800003018BF012070470020704718467047FD
:1050E80010B59DF8084044EA032343EA024242EA25
:1050F800016104234160037510BD37B50D788B78C5
:105108004A78C97800912946FFF7EAFF03B030BD15
:105118004174704770470021007CFFF77DB9012179
:10512800007CFFF779B9007CFFF76EB9007CFFF7C8
:1051380063B938B50446007C0D46FFF765F90028C9
:1051480001DC607C20B12946207CFFF76DF9012045
:1051580038BD007CFFF770B910B50446FEF79BFF19
:10516800204610BD10B50446002363604FF47A73DF
:10517800A360054B2360012308462174637411461C
:10518800FFF72AF9204610BD605F0D000022007C61
:10519800FFF72AB910B514220446002100F078FD63
:1051A800204610BD30B50E4D87B001A8FFF7F2FFBD
:1051B800296811F0010410D12846FEF770FF60B18C
:1051C80001AA21460748FFF7CDFF2846FEF76CFFE6
:1051D800054A0649034800F0C9FB024807B030BD3C
:1051E80018E403201CE40320E8E303201D510D000C
:1051F800704741747047007CFFF7B6B8007CFFF732
:1052080093B8007CFFF7A0B8007CFFF795B8007C46
:10521800FFF7A2B810B50446FEF73DFF204610BDC3
:1052280070B5457C04460E4625B9007CFFF79CF80E
:10523800002805DD3146207CBDE87040FFF76CB8DA
:10524800284670BD10B50446084611460022626023
:105258004FF47A72A260054A2260012220746274B7
:105268001A46FFF751F8204610BD00BF905F0D00A9
:1052780038B50C4D296811F0010411D12846FEF704
:105288000EFF68B1084A094B09482146FFF7DAFFC3
:105298002846FEF709FF074A0749054800F066FB5C
:1052A800034838BDC8E40320CCE4032044E40320C9
:1052B80030E40320E8E30320F9510D0010B58368BA
:1052C80004460BB1C06806E0406828B183680BB992
:1052D80000F06BFBC3689847012323740020BDE8E6
:1052E8001040FEF7E1BF002211464068FFF73AB9C7
:1052F800002211464068FFF745B900224068FFF7D1
:1053080039B9002281F001014068FFF723B9002371
:105318001A4619464068FFF715B900231A46194678
:105328004068FFF707B9002211464068FFF7FAB84E
:10533800002211464068FFF7E5B8002202214068C4
:10534800FFF7E8B800231A464068FFF7D3B810B152
:1053580003685B681847704738B504460068D0B1E1
:10536800FEF76AFFB8B9237C1BB9206808B1FEF7BD
:105378006BFF656855B1AB681BB103222946284607
:1053880098472846FEF787FE002363602068FEF7EB
:1053980063FF0023236038BD38B50B4B0360044618
:1053A800D0F8CC0108B1FEF778FED4F8C4512DB17D
:1053B8002846FFF7D1FF2846FEF76DFEA06808B122
:1053C800FFF7C5FF204638BDC05F0D000068FEF737
:1053D8005BBF2DE9F84F0B9F9DF828B0064688461D
:1053E80091469A4604460025236C4B4529D1636CA7
:1053F800534526D194F848305B4522D14021404698
:1054080000F093FC41460246204600F079FCC0B902
:105418006FB10C21384600F088FC024638B1582399
:1054280003FB05603946493000F06AFC04E0582067
:1054380000FB056595F84900B0FA80F04009BDE821
:10544800F88F0135052D04F15804CDD10020BDE8B1
:10545800F88F00002DE9F04F85B007469DF838A079
:105468000F9E0196CDF800A0894602920393FFF79C
:10547800B0FF00283CD10446582303FB0475D5F837
:105488004080B8F1000F2ED14021484600F04DFC75
:10549800494683460246284600F0EFFBCBF140021E
:1054A800414605EB0B0000F0F3FB029B2B64039BCA
:1054B8006B6485F849802EB10C21304600F035FC2C
:1054C800054600E035465820444338193C442A46EE
:1054D80031464930254400F0D0FB002085F84900CA
:1054E80084F848A005E00134052CC6D1024800E044
:1054F800002005B0BDE8F08FFCFEFFFF07B50023D4
:1055080001930093FFF7A6FF03B05DF804FB2DE9B4
:10551800F341044608460D46904600F0E9FB04F5C1
:10552800DC760746236CABB14021204600F0FDFB3A
:10553800874202460BD32946204600F08FFB30B93C
:10554800009043462A4621465820FEF7C9FF5834A2
:10555800B442E7D102B0BDE8F081000030B58DB0AB
:1055680004461122002101A800F092FB062301AA9B
:1055780009498DF814300A20FEF7A6FE07AD01A9E7
:1055880006A8FFF785FD0FCD04340FC42B682370E0
:1055980000200DB030BD00BFEC5F0D0030B50446F3
:1055A80089B000F5E070FFF711FF236883BB4C203A
:1055B800FEF76DFD054608B1FFF71CFB2068256066
:1055C80008B1FFF7C4FE206820B300224FF49A61A7
:1055D800FFF73FFB08A9002501F8195D1148FEF700
:1055E800E3FD20689DF80720036849F269011B6AFA
:1055F800984702A8FFF73EFD02A8FFF7AFFF002873
:1056080004DB02A92068FFF78CFB04E0054602E0F2
:10561800002500E0044DD4F8C001FEF73DFE284601
:1056280009B030BDF95F0D00FCFEFFFF2DE9F34125
:10563800044600F5E0700F469046FFF7C7FED4F821
:10564800BC61FEB91A49142000F0A0F9054670B1F2
:10565800184B83604FF4406306604660C46006746C
:10566800032201930090144B1449FEF7DDFDD4F892
:10567800BC61C4F8BC512EB13046FFF76DFE304610
:10568800FEF709FD2046FFF789FF002807DB4246A1
:105698003946201DFFF732FF00EAE07500E00546B5
:1056A800D4F8C001FEF7F8FD284602B0BDE8F08145
:1056B80050600D00D9570D00C5520D00FD5F0D005B
:1056C8002DE9F041054600F5E0768AB03046FFF74F
:1056D8007DFE2C68D5F8C001FEF7DEFD002C63D0F6
:1056E800D5F8C43163B12368D5F8C4111F6B2046BF
:1056F8004FF47A734FF49A62B847041E13DC56E0ED
:105708002D494FF49A6000F03FF9D5F8C431C5F837
:10571800C40113B11846FEF7C0FCD5F8C431002BFC
:10572800E1D1264844E02023254A02930092002331
:10573800019402AA234903930120FEF7ADFED5F890
:10574800C4315F1C1B786BBB013C2146384600F016
:10575800ECFA38B3241A002C07EB000822DD3B5C76
:1057680003BB013C0ED008F101082146404600F079
:10577800DCFA241A002C15DD18F8003093B9012C36
:1057880002D00FE0DFF844803046FFF71FFE4246A4
:105798003946281DFFF7BBFED5F8C001FEF77CFD92
:1057A800002005E0084803E06420FEF72DFD2046B0
:1057B8000AB0BDE8F08100BF50600D00FCFEFFFF9D
:1057C8000C600D0005600D00E8FEFFFF525E0D0045
:1057D80008B504462046FFF773FFFBE738B50D4CC4
:1057E8000D4B23600025022304F5E4706360A56077
:1057F800C4F8C451C4F8C851FEF73EFD074BC4F8BD
:10580800CC5123602046064A0649BDE8384000F0DE
:10581800ADB800BF50E5032024600D00C05F0D0047
:10582800E8E30320A1530D0000231A464068FEF761
:1058380061BE002202214068FEF76CBE00221146BC
:105848004068FEF75FBE002211464068FEF76ABE58
:1058580000231A4619464068FEF76CBE00231A4614
:1058680019464068FEF76EBE002281F001014068CB
:10587800FEF770BE00224068FEF77CBE002211468B
:105888004068FEF77FBE002211464068FEF76ABEF8
:1058980070B58CB014460646FFF7ECFB0CAB002243
:1058A800114643F8302D2046FEF766FC014658BBEA
:1058B800009B4BB35A68022A0ED00A2A24D15C698D
:1058C800112201A800F0E4F906238DF8143001AD87
:1058D80004F10803183405E0596930460431FFF72C
:1058E8000CFC11E0186859682A4603C20833A34221
:1058F8001546F7D101A906A807ADFFF7C9FB0FCDDB
:10590800341D0FC42B6823700098FEF72DFC304619
:105918000CB070BD024B034A1A6000225A607047EF
:1059280020E7032024600D0070B50C4C0C4E0D4D83
:1059380000212046FEF79CFE20460B4C32462946A5
:1059480000F014F801212046FEF792FE324629465F
:105958002046BDE8704000F009B800BF28E70320E2
:10596800E8E3032069460D0038E703200B460146AB
:10597800184600F065B90000024B1868BFF35F8F46
:10598800704700BF4CE7032000F000B810B50028AE
:1059980014BF044601242046FEF704FE20B9FFF791
:1059A800EBFF08B18047F6E710BD08B5FEF712FE19
:1059B800184B1A68D1075CBF01221A60164B1A6887
:1059C800D2075CBF01221A60144B1A68D0075CBF6B
:1059D80001221A60124B1A68D1075CBF01221A60B3
:1059E800104B1A68D2075CBF01221A600E4B1A6866
:1059F800D0075CBF01221A600C4B1A68D1075CBF44
:105A080001221A600A4B1A68D2075CBF01221A6089
:105A1800704700BF6CE7032068E7032064E70320B2
:105A280060E703205CE7032058E7032054E70320DE
:105A380050E70320244B1A68D0075CBF01221A6084
:105A4800224B1A68D1075CBF01221A60204B1A68E2
:105A5800D2075CBF01221A601E4B1A68D0075CBFD0
:105A680001221A601C4B1A68D1075CBF01221A6018
:105A78001A4B1A68D2075CBF01221A60184B1A68C1
:105A8800D0075CBF01221A60164B1A68D1075CBFA9
:105A980001221A60144B1A68D2075CBF01221A60EF
:105AA800124B1A68D0075CBF01221A60104B1A68A3
:105AB800D1075CBF01221A600E4B1A68D2075CBF7F
:105AC80001221A60704700BF9CE7032098E7032073
:105AD80094E7032090E703208CE7032088E703205E
:105AE80084E7032080E703207CE7032078E703208E
:105AF80074E7032070E70320244B1A68D0075CBFC3
:105B080001221A60224B1A68D1075CBF01221A6071
:105B1800204B1A68D2075CBF01221A601E4B1A6814
:105B2800D0075CBF01221A601C4B1A68D1075CBF02
:105B380001221A601A4B1A68D2075CBF01221A6048
:105B4800184B1A68D0075CBF01221A60164B1A68F6
:105B5800D1075CBF01221A60144B1A68D2075CBFD8
:105B680001221A60124B1A68D0075CBF01221A6022
:105B7800104B1A68D1075CBF01221A600E4B1A68D5
:105B8800D2075CBF01221A60704700BFCCE7032030
:105B9800C8E70320C4E70320C0E70320BCE70320CD
:105BA800B8E70320B4E70320B0E70320ACE70320FD
:105BB800A8E70320A4E70320A0E70320184B1A68EE
:105BC800D1075CBF01221A60164B1A68D2075CBF66
:105BD80001221A60144B1A68D0075CBF01221A60B0
:105BE800124B1A68D1075CBF01221A60104B1A6861
:105BF800D2075CBF01221A600E4B1A68D0075CBF3F
:105C080001221A600C4B1A68D1075CBF01221A6086
:105C18000A4B1A68D2075CBF01221A60704700BF9E
:105C2800ECE70320E8E70320E4E70320E0E70320AC
:105C3800DCE70320D8E70320D4E70320D0E70320DC
:105C480010B5054C13462CB10A4601460220AFF3A5
:105C5800008010BD204610BD0000000010B50139BD
:105C68000244904207D010F8013B11F8014FA342BB
:105C7800F7D0181B10BD002010BD10B5431E0A44F4
:105C8800914204D011F8014B03F8014FF8E710BD19
:105C980002440346934202D003F8011BFAE7704717
:105CA80038B5124B1C68A36B0546D3B91820FEF70C
:105CB80079FC43F20E33A06303804AF6CD33438068
:105CC80041F2342383804EF26D63C3804DF6EC635A
:105CD8000381052343810B23838101220023C0E92B
:105CE8000423A36B00221D615A6138BDE4E303203D
:105CF800034613F8012B002AFBD1181A0138704704
:105D080030B582B1451E013915F8013F11F8014F30
:105D1800A34206D1EC431444E04201D0002BF3D156
:105D28001C46181B30BD104630BD10B50346014453
:105D38008B4204D01A785C1C0AB12346F8E7181A7B
:105D480010BD00001D400D0059400D0085400D009C
:105D580089400D00000000004576656E743D25738E
:105D680020526563656976656420646174613D25C8
:105D7800730053656E736F72004C6F67000000000C
:105D880000000000000000004B460D0041460D00D9
:105D980037460D002D460D0021460D0015460D0015
:105DA80009460D0001460D00F7450D00ED450D00B3
:105DB80099580D00000000000000000069460D0021
:105DC8006B460D000000000000000000F54C0D00BF
:105DD800194D0D00D9460D0003480D00D1460D00A0
:105DE800EF460D000D470D0027470D004B470D00EE
:105DF800E7470D00E94A0D0089480D00094A0D00E2
:105E0800B9460D008F4C0D008D490D00C1480D009D
:105E1800BD4C0D002D480D00C7460D0069480D000A
:105E2800CD460D0029470D00F0FFFFFF00000000E0
:105E380043470D0066006C6E00666E00636F646514
:105E48000064657461696C000D0A00253031307595
:105E580020005D20002C200028293A2000205B002B
:105E6800636F6465203D200025690064657461697D
:105E78006C73203D2000626175640053657269612E
:105E88006C0053657269616C3100747970650070DB
:105E98006172616D00636D6400696400686E64001E
:105EA8007374726D0066696C74006C766C00616462
:105EB8006448616E646C65720072656D6F766548E2
:105EC800616E646C657200656E756D48616E646CB8
:105ED800657273004A534F4E53747265616D4C6F0F
:105EE8006748616E646C657200617070006E6F6EF9
:105EF8006500747261636500696E666F0077617230
:105F08006E006572726F720070616E696300616C19
:105F18006C005A00252B3033643A25303275002541
:105F2800592D256D2D25645425483A254D3A25537C
:105F3800257A0061736374696D65000000000000D4
:105F48000000000017500D0009500D000B500D0007
:105F580000000000000000001D510D0061510D00FF
:105F68003B510D00434D0D0035510D001F510D00E3
:105F780027510D005B510D002F510D0019510D00D7
:105F88000000000000000000F9510D001D520D0036
:105F980029520D00434D0D0005520D0011520D0000
:105FA8000B520D0017520D00FB510D00FF510D0053
:105FB80000000000000000004D530D0043530D0089
:105FC80039530D002F530D0023530D0017530D00A7
:105FD8000B530D0003530D00F9520D00EF520D0045
:105FE80099580D00666630333A3A313A31303031DB
:105FF80000746831006D6573687075620077697246
:10600800696E67007061727365207061636B657497
:1060180020256400000000000000000031580D0039
:106028003B580D0045580D004F580D0059580D00AC
:1060380065580D0071580D007D580D0085580D00EC
:106048008F580D0099580D00000000000000000056
:106058000000000000000000000000000000000038
:106068000000000000000000000000000000000028
:106078000000000000000000000000000000000018
:106088000000000000000000000000000000000008
:1060980000000000000000000000000000000000F8
:1060A80000000000000000000000000043000000A5
:1060B8006B410D0055460D00A1460D00814E0D00A7
:1060C800914E0D00094F0D00E5570D001D590D00AB
:1060D80031590D00B9590D003D5A0D00015B0D00F5
:0860E800C55B0D000000000083
:1060F0003B5F0D000000000054600D0074600D0057
:1061000094600D000000000000000000000000008E
:1061100000000000B4600D0000000000000000005E
:10612000000000000000000000000000000000006F
:10613000000000000000000000000000000000005F
:10614000000000000000000000000000000000004F
:086150000000000084E30320BD
:10615800FFFFFFFF00000102030405060708090A04
:106168000B0C0D0E0F101112131415161718191AFF
:086178001B1C1D1E1F20280046
:046180007856341207
:04000003D0004018D1
:00000001FF
