:02000002D0002C
:1040000000400D0078800D00000005000E00050145
:0840100004019301000000000F
:10401800587B0D0009480A49884208B505D0094A65
:10402800824202D0121A03F04FFD0748074A0021C6
:10403800121A03F054FD014808BD00BF50E20320E6
:10404800687F0D0038E3032038E30320F0E70320FE
:1040580070B502F087F9074C074BE41AA40800254D
:104068001E46A54204D056F8253098470135F8E792
:1040780070BD00BF587F0D00207F0D0000F016BEF8
:1040880008B500F049FEBDE8084002F039B901F072
:10409800ADBB01F0ABBB01F0B1BB01F0AFBB007829
:1040A800B0FA80F04009704701230370704748B1A7
:1040B800836C3BB1C36C2BB1006DB0FA80F0400942
:1040C800404270474FF0FF30704773B502460846CC
:1040D8000C46FFF7ECFF054650BB12F0800FCA787C
:1040E80014BF002310239A4222D0CB708E6C6078C4
:1040F80001230DF10702F321B04784F8540010B1F1
:104108006FF0010514E0E378E66C607803F01002C4
:104118009DF8073023F0100313438DF807300DF195
:10412800070201237321B04784F854000028E7D11F
:10413800284602B070BD73B50446FFF7B8FF0546C0
:1041480088B9A66C607801230DF10702F321B04706
:1041580084F8540028B99DF8073003F01003E37081
:1041680001E06FF00105284602B070BD40B1037848
:104178008B4208D90170137843F00203137002E0F0
:104188004FF0FF307047002070472DE9F84306468E
:104198001846884691461D46FFF789FF0446A8B988
:1041A800AB783BB929463046FFF78FFF044608B97C
:1041B80046F08006AF6C68784B4642463146B847B1
:1041C800002885F8540018BF6FF001042046BDE8A8
:1041D800F8832DE9F04F8BB01E4683468A46144675
:1041E80000212822684603F07AFC3046FFF75FFF7B
:1041F8000546A8BB631E122B30D80DF101080AF141
:10420800FF3A5F46C146A4B2CBEB07039BB29C4280
:1042180013D9B37843B931463878FFF756FF3B785E
:10422800054603F07F0300E03B7808F8013C1AF8E4
:10423800013F08F8023B0137E6E78DB96300013B0F
:10424800F46C9DF8001070789BB24A46A04700288D
:1042580086F8540018BF6FF0010501E06FF0030500
:1042680028460BB0BDE8F08F37B5E0238DF806304F
:10427800B62305468DF80730FFF719FF0446D8B96D
:10428800AB786BB12B4601220DF107010DF1060049
:10429800FFF79FFF2B6D04460A20984734B10BE0C7
:1042A8002846FFF748FF044630B9EBE7AB781BB95F
:1042B8002846FFF740FF0446204603B030BD30B51E
:1042C8008DB00446FFF7F3FE0546002840F0D58080
:1042D8002046FFF7C9FF0546002840F0CE80234658
:1042E80001222146D020FFF750FF0546002840F064
:1042F800C4802378612B40F0BE800146292201A8A2
:1043080003F0EDFB20468DF80350FFF7D0FE05467D
:10431800002840F0B2802346192201A98920FFF71E
:1043280034FF054638B9234610220DF11D01E1205E
:10433800FFF72BFF05469DF826209DF8253043EA18
:104348000223E3829DF806209DF8053043EA022304
:1043580023839DF807309DF80A20A3769DF809303D
:1043680043EA0223A3839DF80C209DF80B3043EA0F
:104378000223E3839DF80D309DF8102084F8203047
:104388009DF80F3043EA022363849DF812209DF8BC
:10439800113043EA0223A3849DF8143084F82630B0
:1043A8009DF813309DF8182084F827309DF81730B1
:1043B80043EA022323859DF81A209DF8193043EA21
:1043C800022363859DF81B3084F82C309DF81E303D
:1043D8009DF81F1003F00F0242EA011222819DF896
:1043E8001D201B0943EA021363819DF820302373C3
:1043F8009DF8213063739DF82230A3739DF8233014
:10440800E3739DF8243023749DF8293063749DF874
:1044180028209DF8273043EA022363829DF82A303A
:10442800237515BB234601220DF103010220FFF776
:10443800ACFE9DF80330C3F3011384F8343005460D
:1044480098B9234601220DF10301FFF79EFE9DF85E
:10445800033084F83530054638B9234601220DF17A
:1044680003010420FFF791FE05469DF903301B1157
:1044780084F8363001E06FF0020528460DB030BDF3
:1044880037B5742304468DF80730FFF710FEA0BB3C
:104498000546234601220DF106017420FFF775FE3B
:1044A800A0B99DF8063013F0030511D023F00303DB
:1044B8008DF80630012223460DF106010DF10700A3
:1044C800FFF787FE236D0A209847E2E7002DE0D129
:1044D80094F844308BB19DF8062003F0030322F0D2
:1044E800030213438DF8063038B9234601220DF133
:1044F80006010DF10700FFF76CFE03B030BD2DE992
:10450800F04188B00023064608460C468DF807306F
:104518000493ADF814300693ADF81C30FFF7C7FDCF
:10452800002840F06681320791F844706CD5012F5D
:10453800ADF80800ADF80C0065D1B1F840505A2329
:10454800C72D8DF8083005D9B5F5C87F28BF4FF4B9
:10455800C87500E0C825B4F912E094F9112094F95F
:10456800043094F914000EF5163E0EF2991E02F569
:104578004472142113FB00F005FB0EF54FF47A7317
:1045880095FBF1F590FBF3F30A211B0205F548159D
:1045980095FBF1F56A4303EB620194F83430043378
:1045A80091FBF3F294F9351083234B4303F58033E1
:1045B80092FBF3F32222FA3B53433233642293FBF8
:1045C800F2F38DF80C30B4F842308DF80920B3F5C9
:1045D8007C6F0BD200223F2BD1B202F1010201D92C
:1045E8009B08F8E703EB8113DBB200E0FF238DF8AB
:1045F8000D30002384F83C300222234603A902A888
:10460800FFF7E7FD00E00120002384F8443010B9EB
:104618002046FFF735FF06F01005ADB205B304F1EB
:104628004602072104F13B00FFF7A0FD30B92346FD
:1046380001220DF107017520FFF7A7FD94F83B3023
:104648009B0003F01C029DF8073023F01C03134362
:1046580075228DF807308DF810208DF81830012557
:10466800B30622D504F14602082104F13D00FFF704
:104678007DFD30B9234601220DF107017020FFF7B7
:1046880084FD9DF8073023F0080294F83D3003F0CC
:104698000803134308AA2A44702101358DF807300E
:1046A80002F8101C02F8083CEDB2B10733D004F14F
:1046B8004602052104F13900FFF758FD30B92346B9
:1046C80001220DF107017420FFF75FFDF20709D5FC
:1046D8009DF8073094F8392003F01F0343EA42138A
:1046E8008DF80730B3070BD594F83A309B0003F0E8
:1046F8001C029DF8073023F01C0313438DF8073084
:1047080008AB2B44742203F8102C01359DF80720C0
:1047180003F8082CEDB2710722D504F146020521F1
:1047280004F13800FFF722FD30B9234601220DF1CC
:1047380007017220FFF729FD9DF8073023F00702D3
:1047480094F8383003F00703134308AA2A44722167
:1047580001358DF8073002F8101C02F8083CEDB25C
:1047680016F0C00F3CD004F146084246012104F17E
:104778003E00FFF7FBFC68B942460A2104F13C0001
:10478800FFF7F4FC30B9234601220DF1070171202F
:10479800FFF7FBFC72060BD594F83E301B0103F0C3
:1047A80010029DF8073023F0100313438DF80730EB
:1047B80033060AD59DF8073023F00F0294F83C30F1
:1047C80003F00F0313438DF8073008AB2B44712215
:1047D80003F8102C01359DF8072003F8082CEDB2DA
:1047E80028B923462A4606A904A8FFF7F2FC84F84C
:1047F800447008B0BDE8F08113B5184B044618683A
:104808009B88ADF8043091F83930009002AA13441F
:1048180091F83A2013F8083C02A8024412F8082C30
:10482800134491F83820024412F8082C134440F23B
:10483800AB72534303F595534FF47A721933B3FBB4
:10484800F2F301339BB2238091F83E201AB1B1F8FC
:1048580042201344238002B010BD00BF6C7B0D00C2
:104868002DE9F04F804689B008460C46FFF71FFC3B
:104878000546002840F0678104AF01460F223846FC
:1048880003F02DF92046FFF712FC0A260546002DF5
:1048980040F0538123460F2239461D20FFF775FC4F
:1048A80005469DF810009DF81EE09DF813909DF8B0
:1048B80014C09DF815B09DF816109DF8172000F04B
:1048C8000F0388F801309DF8113088F802309DF800
:1048D800123000939DF8183001939DF81930029317
:1048E8009DF81D3003934FFA8EF303F0200A20F051
:1048F8007F0040EA0A0003F01003184340B2002882
:1049080088F8000080F21681120942EA011141EA92
:104918000B3BE18AB4F918004900C1EBDB010A46F8
:10492800CB175B104FEA320202FB03F6A2FB02230D
:104938004FEA123A94F91A2003EB46034AEA035A5B
:104948004FEA233B1301DF170AFB07F603FB0B664D
:1049580080FB0101AAFB03233344C00A920B40EAFF
:10496800415042EA83428318236303EB8303803375
:104978001B12A8F80430236B94F926005B10A3F5EA
:104988007A439A105243D1124843B4F92410594338
:10499800490001EBA001B4F91E00434394F920003B
:1049A800521340014243D21002EB63039B14A28BC3
:1049B800B4F9280003F5004353434FEA1C1C009A3E
:1049C8004CEA091949EA0239B4F92220120402EB27
:1049D800A101C9F5801940F63542A9EB21315143AF
:1049E800DB13B1FBF3F35B00D910B4F92A20494378
:1049F80049134A43991041431E12491301EB2231CE
:104A080006FB06F2564394F82C20724301EB6242EF
:104A180094F9271002EBC11203EB2213C8F80830EF
:104A2800236B94F90E1094F90D006789268903EB1E
:104A3800830380331B126422594391FBF2F15943DB
:104A48005843891190FBF2F091FBF2F1014401F512
:104A5800804179438F120198029941EA002094F924
:104A68000C10A0EB0616594391FBF2F1A6EB61007E
:104A780000FB07F194F91000434393FBF2F2E37B48
:104A880002EBC3128B135B4312119B12534301EBCE
:104A980063034FF47A729B1253431B1323EAE373A5
:104AA8002B4A9342D4BFC8F80C30C8F80C2094F9AC
:104AB8003630052240F23C500021C3FB02010EF0C3
:104AC8000F06244B53F82670A0FB072307FB01337E
:104AD800100C40EA03401914039B1F4F4FEA9E1E17
:104AE8004EEA830E4FEACE3257F826E012F17F42A3
:104AF8004FF00003AEFB006743F1FF3312184B4140
:104B08000EFB0177700A40EAC75079125F104FEA2E
:104B180032068019794102F005FEC8F8100095B9EF
:104B280098F90030002BBABF012384F8453084F887
:104B3800455008E0236D0A209847013E16F0FF060D
:104B48007FF4A5AE0225284609B0BDE8F08F00BF66
:104B5800A086010050E2032090E203200368184772
:104B6800012A02D0022A02D004E0016002E00B68A8
:104B780000B1036000207047436913B183690C30AA
:104B88001847704713B500210446084600F012FC88
:104B980002A90023204641F8043D00F023FC019CB3
:104BA8000CB1012323710021012000F003FC2CB17A
:104BB800236820469B6898470023237102B010BDE4
:104BC8001FB5104C204600F0ABFA28B90E4A0F4921
:104BD8000F4801F07DFE12E00E4B2068186002F0CD
:104BE800EBFA02460B4668460B4901F097FA009A21
:104BF8000A49074801F06CFE684601F034FA04B02F
:104C080010BD00BF58E30320887B0D00A37B0D0077
:104C180044E50320D0E30320A77B0D00BC7B0D00F7
:104C280010B58368044613B103220146984720460D
:104C380010BD07B58068002338B18DE80A0002214D
:104C480000F0D8FBB0FA80F0400903B05DF804FB2F
:104C580038B5104B036083680446A3B16FF0004178
:104C68000022FFF7E6FF0021A06800F0F3FB23799C
:104C780003F0FF0513B100F085FBF8E72946A068AB
:104C880000F0A8FBA56004F10C00FFF7C9FF20465F
:104C980038BD00BF7C7B0D0010B50446FFF7D8FF78
:104CA8002046FFF7F8F9204610BD000013B5012093
:104CB80001F0CFFA7621154800F0B6F9024688B11E
:104CC800134C002211462046FFF7B3FFA06868B1D5
:104CD80000236FF000428DE80C0019461A4600F0D8
:104CE80089FB03E00146FF2001F0C3FA094C0023C9
:104CF8001A461946606800F041FD002360681A46AC
:104D0800194602B0BDE8104000F018BD58E3032072
:104D18003CE303203CE50320094B93ED007AF3EED6
:104D28000B7AB4EEE77AF1EE10FAC9BF002200213F
:104D38001146FF20DCBFFF22084601F09ABA00BFE7
:104D4800D0E3032070B588B000F074FA4FF0FF315B
:104D58001A481B4C00F052F91A4B049304AD95E81D
:104D6800030004F10C0202AE86E8030092E8030097
:104D780085E8030096E8030082E80300124A6261AE
:104D8800124BA269236007920023114A2371A36082
:104D98000693A261019300930E4A23464FF4FA61E9
:104DA80004F1080000F00EFB2846FFF739FF0A4A15
:104DB8000A49204601F04EFF08B070BD58E30320B1
:104DC8003CE30320C94B0D00694B0D007C7B0D00B3
:104DD800654B0D008D4B0D0038E30320594C0D0039
:104DE80001F02EBAF8B5074614461D460E4601F0E6
:104DF80011FF394601F07EFC01F00CFF03683146D3
:104E08009B6898472544AC4207D001F003FF03682C
:104E180014F8011B9B689847F5E701F0FBFE01F0C9
:104E280071FC0020F8BD00002DE9F0471B4D95F9F5
:104E380000300133804605D10146BDE8F0471848E7
:104E480000F0B6BDDFF85C90DFF85CA00726002410
:104E580095F90000002180B201F08DFE012799F933
:104E6800000007FA06F101EA080180B201F083FEAA
:104E780095F90000394680B201F07DFE9AF90000EC
:104E8800640080B2E4B201F08FFE00B13C4316F139
:104E9800FF36DDD22046BDE8F08700BFD5E303200A
:104EA80014E70320D6E30320D4E303202DE9F041DF
:104EB8008846002115461E46074601F05CFE174B42
:104EC80093F9002001321C460ED1154800F008FD68
:104ED8004021134800F058FD0121114800F005FD5C
:104EE80000210F4800F004FD4046FFF79DFF2E44C7
:104EF800B54204D015F8010BFFF796FFF8E794F9CF
:104F08000030013302D1064800F0F5FC3846012193
:104F180001F031FE0020BDE8F08100BFD5E3032099
:104F280014E703202DE9F0418846002115461E4666
:104F3800074601F020FE174B93F9002001321C466A
:104F48000ED1154800F0CCFC4021134800F01CFDA0
:104F58000121114800F0C9FC00210F4800F0C8FCED
:104F68004046FFF761FF2E44B54205D00020FFF709
:104F78005BFF05F8010BF7E794F90030013302D124
:104F8800054800F0B8FC3846012101F0F4FD002086
:104F9800BDE8F081D5E3032014E70320F8B5044603
:104FA80015461E460F4601F035FE214601F0A2FBCC
:104FB80001F030FE036839469B68984701F02AFEE5
:104FC80001F0A0FB01F026FE2146F2B201F08FFBB2
:104FD80084B2A6420DD14FF6FF76013CA4B2B4428A
:104FE80009D001F017FE03685B69984705F8010BC3
:104FF800F3E70120F8BD0020F8BD0000017707495C
:10500800FF220A7006490A7006490A7000220275D2
:10501800C274827442740274704700BFD6E30320DE
:10502800D4E30320D5E3032038B504460D46617563
:1050380090F91C00421C0CD101F0ECFD01F048FB7A
:10504800012384F822302D4BA36684F821502C4B81
:105058002DE0012180B201F08EFD94F91C000121A0
:1050680080B201F077FD274B93F90000431C03D170
:10507800254800F035FC11E0012180B201F06AFDFD
:10508800224B93F90000012180B201F063FD204B0F
:1050980093F90000002180B201F05CFD237F84F8C1
:1050A8002130002384F822301A4BA3661A4BE3669A
:1050B8001A4B236704F12000FFF701F9E0B9042334
:1050C80084F85930022384F8583084F85B304FF460
:1050D800A07301200322A4F8603096236074A074A2
:1050E80084F85A20E0742074A4F8623084F85E00D2
:1050F800207584F8640038BD002038BDA54F0D0028
:10510800ED4D0D00D5E3032014E70320D6E303207B
:10511800D4E303202D4F0D00B54E0D00E94D0D00D1
:1051280030B50123044680F86430A37C407C87B006
:105138000BB140F00400E37C0BB140F00200237C8B
:105148000BB140F01000237D0BB140F0C80004F112
:1051580020052946FFF7D3F908B100204FE028467B
:10516800FFF78EF90028F8D129460DF10200FFF764
:1051780043FBBDF80200400001F062F8294601A88F
:10518800FFF76EFB0028E8D1637C5BB1BDF908002E
:1051980002F000F800221B4B02F08CF902F072FAC0
:1051A800206001E0184B2360A37C53B1049801F000
:1051B800E1FF0022154B02F07DF902F063FAA060CE
:1051C80001E0114BA360E37C33B1DDED037AF8EE27
:1051D800677AC4ED017A01E00B4B6360207D68B10A
:1051E8009DF80430DB0645BFDDED057AF8EE677AF9
:1051F8000023C4ED037A58BFE36000E0012007B044
:1052080030BD00BF000059400000C07F00408F4003
:1052180000F010B808B5024B1B689B68019308BDE5
:105228006802030008B5024B1B68DB68019308BDE0
:105238006802030008B5024B1B681B68019308BD90
:105248002C02030008B5024B1B689B68019308BD3C
:105258002C02030008B5024B1B68DB68019308BDEC
:105268002C02030008B5024B1B681B69019308BD9B
:105278002C02030008B5024B1B685B69019308BD4B
:105288002C02030008B5024B1B681B68019308BD7C
:105298003002030008B5024B1B689B68019308BDE8
:1052A8003002030008B5024B1B68DB68019308BD98
:1052B8003002030008B5024B1B681B69019308BD47
:1052C8003002030008B5024B1B685B69019308BDF7
:1052D8003002030008B5024B1B68DB69019308BD67
:1052E8003002030008B5024B1B681B6A019308BD16
:1052F8003002030008B5024B1B685B6A019308BDC6
:105308003002030008B5024B1B681B69019308BDF6
:105318006C02030008B5024B1B685B69019308BD6A
:105328006C02030008B5024B1B689B69019308BD1A
:105338006C02030008B5024B1B685B6D019308BD46
:105348006C02030008B5024B1B689B6D019308BDF6
:105358006C02030008B5024B1B685B68019308BD2B
:105368001802030008B5024B1B685B69019308BD6E
:105378001802030008B5024B1B689B68019308BD1F
:105388004802030008B5024B1B68DB68019308BD9F
:105398004802030008B5024B1B681B69019308BD4E
:1053A8004802030008B5024B1B685B69019308BDFE
:1053B8004802030008B5024B1B68DB69019308BD6E
:1053C8004802030008B5024B1B681B6A019308BD1D
:1053D8004802030008B5024B1B685B6A019308BDCD
:1053E8004802030008B5024B1B689B6A019308BD7D
:1053F8004802030008B5024B1B68DB6A019308BD2D
:105408004802030008B5024B1B681B6B019308BDDB
:105418004802030008B5024B1B681B6C019308BDCA
:105428004802030008B5024B1B685B6C019308BD7A
:105438004802030008B5024B1B68DB6C019308BDEA
:105448004802030008B5024B1B685B6D019308BD59
:105458004802030008B5024B1B681B6F019308BD87
:105468004802030008B5024B1B685B69019308BD3D
:105478006402030008B5024B1B689B69019308BDD1
:105488006402030008B5024B1B681B6A019308BD40
:105498006402030008B5024B1B685B6A019308BDF0
:1054A8006402030008B5024B1B689B6A019308BDA0
:1054B8006402030008B5024B1B681B68019308BD12
:1054C8003C02030008B5024B1B68DB68019308BD6A
:1054D8003C02030008B5024B1B681B69019308BD19
:1054E8003C02030008B5024B1B685B69019308BDC9
:1054F8003C02030008B5024B1B689B69019308BD79
:105508003C02030008B5024B1B68DB69019308BD28
:105518003C02030008B5024B1B681B6A019308BDD7
:105528003C02030008B5024B1B689B6A019308BD47
:105538003C02030008B5024B1B68DB68019308BDF9
:105548002802030008B5024B1B685B69019308BD7C
:105558002802030008B5024B1B689B69019308BD2C
:105568002802030008B5024B1B68DB69019308BDDC
:105578002802030008B5024B1B681B6A019308BD8B
:105588002802030008B5024B1B685B6A019308BD3B
:105598002802030008B5024B1B689B6A019308BDEB
:1055A8002802030008B5024B1B68DB6A019308BD9B
:1055B8002802030008B5024B1B681B6B019308BD4A
:1055C8002802030008B5024B1B685B6B019308BDFA
:1055D8002802030008B5024B1B681B6C019308BD29
:1055E8002802030008B5024B1B685B68019308BDDD
:1055F8003802030008B5024B1B689B69019308BD7C
:105608003802030008B5024B1B68DB69019308BD2B
:105618003802030008B5024B1B68DB6A019308BD1A
:105628003802030008B5024B1B685B6B019308BD89
:105638003802030008B5024B1B689B6B019308BD39
:105648003802030008B5024B1B681B68019308BDAC
:105658004C02030008B5024B1B681B69019308BD87
:105668004C02030008B5024B1B685B69019308BD37
:105678004C02030008B5024B1B689B69019308BDE7
:105688004C02030008B5024B1B68DB69019308BD97
:105698004C02030008B5024B1B681B6A019308BD46
:1056A8004C02030008B5024B1B685B68019308BDF8
:1056B8006002030008B5024B1B689B68019308BD94
:1056C8006002030008B5024B1B68DB68019308BD44
:1056D8006002030008B5024B1B689B69019308BD73
:1056E8006002030008B5024B1B68DB69019308BD23
:1056F8006002030008B5024B1B685B68019308BD94
:105708002002030008B5024B1B685B69019308BDC2
:105718002002030008B5034B1B68D3F888300193B7
:1057280008BD00002002030008B5034B1B68D3F82E
:105738009430019308BD00002002030008B5024B15
:105748001B685B68019308BD4002030008B5024B63
:105758001B689B68019308BD4002030008B5024B13
:105768001B68DB68019308BD4002030008B5024BC3
:105778001B681B69019308BD4002030008B5024B72
:105788001B685B69019308BD4002030008B5024B22
:105798001B689B69019308BD4002030008B5024BD2
:1057A8001B68DB69019308BD4002030008B5024B82
:1057B8001B681B6A019308BD4002030008B5024B31
:1057C8001B681B6B019308BD4002030008B5024B20
:1057D8001B685B6B019308BD4002030008B5024BD0
:1057E8001B68DB6B019308BD4402030008B5024B3C
:1057F8001B681B68019308BD1C02030008B5024B17
:105808001B685B68019308BD1C02030008B5024BC6
:105818001B689B68019308BD1C02030008B5024B76
:105828001B685B6A019308BD1C0203000022114635
:105838004068FFF7BBBF002211464068FFF7C6BFAC
:1058480000224068FFF7BABF002281F001014068DA
:10585800FFF7A4BF00231A4619464068FFF796BF12
:1058680000231A4619464068FFF788BF00221146F0
:105878004068FFF77BBF002211464068FFF766BF0C
:10588800002202214068FFF769BF00231A464068DA
:10589800FFF754BF024B03225A60024A1A6070474E
:1058A800D8E30320CC7B0D00704710B50446FEF703
:1058B800F2FB204610BD000070B5084B036004469B
:1058C80000250E4640F80C5FFFF79CFD3046267118
:1058D800FFF700FDA560204670BD00BF007C0D00ED
:1058E8004FF6FF710079FFF7CDBC0079FFF7D2BC06
:1058F8000079FFF7D7BCC068FFF78CBD054A0023C5
:10590800995C814202D00133082BF9D1581CC0B2EE
:10591800704700BF087C0D00400830B518600024AF
:1059280018688842E5B206D90134082C02D040082C
:105938001860F5E70725024B5B5D137030BD00BFAB
:10594800087C0D0070B588B0067902FB01F50446A5
:105958001422002103A802F0C2F80B2303A9304641
:105968000022ADF80C30FFF7C5FC02AB0DF10702C1
:1059780029460498FFF7D0FF20799DF80710FFF714
:1059880099FC029808B070BD38B504460846A56869
:105998004DB1FFF7B3FF012225FA00F12046BDE81B
:1059A8003840FFF7CFBF2079BDE83840FFF782BC09
:1059B80008B50079FFF786FCC0B208BD0079FFF78B
:1059C80091BC0000044B00204FF6FF7218705880FD
:1059D8009A80FFF78FBE00BFE0E3032010B404688D
:1059E800246BA4465DF8044B604703689B6C18471A
:1059F800808E7047028FC08E101A704713B502ABA5
:105A0800026803F8011DD46819460122A04702B0B4
:105A180010BD10B503681B690446984728B1E38E8A
:105A2800E26B591CE186D05C10BD4FF0FF3010BD11
:105A380010B503681B690446984718B1E38EE26BFA
:105A4800D05C10BD4FF0FF3010BD704710B4034656
:105A58000846DC6BD98E1A8F0368521ADB6821441A
:105A68005DF8044B1847A0F11000FFF7EFBFF0B541
:105A780003688DB01C265B6A04460F461546984796
:105A880001233246002105A8029302F028F88DF878
:105A9800146038460A268DF81560FFF703FD1122B9
:105AA800ADF8160002213046FFF7C4FD00286061FA
:105AB80024DB0422009202AB40F6FF71FFF79AFD47
:105AC800E0B995B10390ADF8100003A9E8B2FFF76B
:105AD80021FC98B90623009341F20B0203AB40F670
:105AE800FF716069FFF786FD40B91C2205A960694E
:105AF800FFF778FD10B96564012004E023682046AB
:105B08005B6A984700200DB0F0BD10B504464069A7
:105B1800002801DBFFF776FD4FF0FF3363610023B8
:105B2800E386238710BD38B5C36B0546C08E13B115
:105B38002C6C241A00E01C46944228BF14462246C6
:105B4800184401F0C1FFEB8E2344EB86204638BD94
:105B580070B503681B6904460E461546984788B118
:105B6800236820461B699847E38EE16B8542A8BFEE
:105B7800054619442A46304601F0A6FFE38E2B4419
:105B8800E38601E04FF0FF35284670BD70B5044646
:105B9800054B44F8043B01F1200506460FCD0FC420
:105BA8002B682370304670BD907D0D00F0B594468B
:105BB800026889B0976A0A4A02921D1D8E460646F7
:105BC8000FCD03AC0FC42B682370BDF83830009399
:105BD800624602AB71463046B84709B0F0BD00BF17
:105BE800907D0D00F0B50368B0F836E09F6A0D4B64
:105BF80089B000F12006044602930FCE03AD0FC50D
:105C080033682B70A38E0093724602ABE16B20467B
:105C1800B84723680546DB6920469847284609B0F7
:105C2800F0BD00BF907D0D00F0B54378022B8DB01C
:105C380005460C46174601D1011D33E00A2B35D124
:105C48001122002101A801F04AFFAB6843B9EB68B3
:105C580033B94FF6FF702E69FFF714FC86421FD048
:105C680005F1080301AE05F1180E186859683246A7
:105C780003C2083373451646F7D1062301A906A8BF
:105C880007AE8DF8143000F0CFFB0FCE04340FC4EC
:105C98003368237057B16888FFF7FCFB388005E04C
:105CA80005F11401204600F0F4FBF3E70DB0F0BD58
:105CB8002DE9F0418EB00EAB002506461746084682
:105CC80043F8345D2A462946FFF7ACFA00281FDB63
:105CD800019BFBB15B69EBB102A800F097FB019B4C
:105CE8002A46586902A9FFF79FFF02A800F0AEFBF9
:105CF80080B1336803ADD3F838800B4B08930FCDD0
:105D080009AC0FC42B6823703A4608A93046C0472F
:105D1800044601E04FF0FF340198FFF77BFA204674
:105D28000EB0BDE8F08100BF907D0D002DE9F04771
:105D3800D0F81480B8F1000F8CB005460C46174611
:105D4800994600DB11B94FF0FF3035E04FF01C0ADF
:105D580005AE52460021304601F0C1FECDF808A03C
:105D6800B9F1000F14D04FF47A72B9FBF2F1039134
:105D780002FB11914A4308230492009341F2060260
:105D880003AB40F6FF714046FFF734FC08B113E05F
:105D9800082002AB01932146034600963A466869FB
:105DA800FFF738FC041E06DB05F1340205F11C017F
:105DB8003046FFF739FF20460CB0BDE8F08738B50C
:105DC800054614462B7D062B084611D11C2313705B
:105DD8000A235370FFF766FB083424F8060C2B1DC2
:105DE800143553F8042B44F8042BAB42F9D138BDD1
:105DF800042B0AD11023137002235370FFF752FBB0
:105E080060806868FFF73EFB606038BD2DE9F043AD
:105E18008BB003AC1C25994606460F4690460021D8
:105E28002A46204601F05BFE2246BDF84810484647
:105E3800FFF7C5FF9DF80D3043B18DE83000002312
:105E4800424639467069FFF7EDFB01E04FF0FF303D
:105E58000BB0BDE8F083F0B591B00C4606460021C2
:105E6800154609A81C221F4601F039FE09AA00217F
:105E78002046FFF7A4FF9DF82530022B2ED10023E2
:105E880005930A9B0493DDB102A92846FFF74AFA55
:105E9800B0B910A941F8340D0298FFF74BFA60B970
:105EA800039B53B1DA6812685178022903D152680A
:105EB8000AB1059201E01B68F3E70398FFF742FA7D
:105EC800002F4FF00803009318BF032204AB08BF4C
:105ED800042200213046FFF78DFB1EE00A2B1AD161
:105EE80004AC14220021204601F0F9FD0BAB0FCBC6
:105EF800002F84E80F004FF01403009318BF0C2202
:105F0800234608BF0D22292130460895FFF772FB6A
:105F180000EAE07001E04FF0FF3011B0F0BD000082
:105F280038B54FF47A7383600B4B03F108026C3376
:105F3800002503614FF0FF3304464560026043616A
:105F48001C3000F063FA4FF40073E5862587E5639B
:105F580023646564204638BD107C0D0010B590F8A8
:105F6800483004461BB1C06B08B1FEF794F8002313
:105F7800E36384F848302364E386238710BD70B553
:105F8800044616460D46FFF7E9FF0023E66323643F
:105F98003EB935B12846FEF77CF80123E06384F862
:105FA8004830E36B03B12564206C003018BF012032
:105FB80070BDF8B51746C26B05460C461AB9016C98
:105FC80009B1FFF7DCFF04340FCC05F120060FC63A
:105FD800236833700023AF86EB862B87286CF8BDC7
:105FE80070B5C26B04461AB9016C09B1FFF7C7FF57
:105FF800E16B0023E386238741B1226C32B120682C
:10600800056B2046A8470028C8BF2087236820467C
:106018001B69BDE87040184710B5074B03F108022B
:106028006C33044602600361FFF76FFD2046FFF7FB
:1060380095FF204610BD00BF107C0D0010B504462A
:10604800FFF7EAFF2046FEF726F8204610BD024675
:106058004069002804DB012392F84420FFF7FBBEC7
:106068004FF0FF30704710B504460068FFF7C6FBD5
:10607800204610BD10B50446006808B1FFF7BEFB06
:1060880000232360A360636010BD38B504460D4645
:1060980000680131FFF7BAFB10B184E82100012044
:1060A80038BD10B50368044613B143688B4207D264
:1060B8002046FFF7EAFF20B1A3680BB922681370E6
:1060C800012010BD70B50E46114604461546FFF76F
:1060D800E8FF18B92046FFF7CDFF09E02A46314608
:1060E800A560206801F0F0FC2268A3680021D15463
:1060F800204670BD38B500230446036043608360C2
:1061080003730D4639B1084601F01AFD29460246C7
:106118002046FFF7D7FF204638BD00000EB4FFB574
:1061280009AC054654F8047B019423463A460521F8
:1061380002A8FFF773FB0C4906462846FFF7DAFF6B
:1061480031462846FFF7ADFF286830B123463A4666
:10615800711C0194FFF762FBA860284604B0BDE8F3
:10616800F04003B0704700BF967C0D00F8B50646B6
:106178000D468F180024BD420CD0336815F8011B5A
:106188009B6830469847002801DB0444F3E7002C5D
:1061980008BF04462046F8BD70B505460C460846BB
:1061A80049B101F0CDFC2B68024621462846DB6840
:1061B800BDE87040184770BD03689B68184730B544
:1061C8008BB00B4600218DF82410012A98BF0A22B3
:1061D8000DF12304B3FBF2F505FB123303F0FF03C3
:1061E800092B94BF30333733DBB2214604F8013929
:1061F8002B46002DEED1FFF7CFFF0BB030BD10B40A
:106208002AB903685DF8044B9B68C9B21847D2B233
:106218005DF8044BFFF7D3BFFFF7F1BF014B024A0C
:106228001A607047E8E30320357D0D00024B1A68B9
:10623800024B1A60704700BFD0E20320ECE3032052
:106248000021FFF75FBA10B50446FEF7E9FC2046C7
:1062580010BD10B50446FFF73DFA844208D01CB1C2
:10626800BDE81040FFF726BABDE81040FFF72ABA8C
:1062780010BD70B505460E461446FFF72BFA50B10F
:1062880044EA062040EA0540FFF70CFAE720BDE89B
:106298007040FFF727BA70BD0348044A0449002339
:1062A800836000F0D7BC00BFF0E3032038E303208D
:1062B8004F620D0008B50F4B33B100F03BF903688E
:1062C8001B69984700280DDC0B4B33B100F09CF993
:1062D80003681B699847002807DC084B43B1AFF3F4
:1062E800008008BDAFF30080EEE7AFF30080F4E76D
:1062F80008BD00BF00000000000000000000000012
:1063080008B5FFF7D7FFFFF72DF8014B186008BD58
:1063180034E7032007B5002300931A466FF077018E
:10632800FFF702FA03B05DF804FB000007B54388E5
:106338000A2B08D0502B09D1094B1B683BB103B07D
:106348005DF804EB1847FFF7E5FF06E0002300932C
:106358001A466FF07701FFF7E7F903B05DF804FB21
:1063680000E4032010B5FEF7F5FF044601F0C0FB7A
:10637800074B13B12046AFF3008000210448FFF714
:106388002DFA00210348BDE81040FFF7C3B900BF4C
:106398000000000035630D00704710B50446FDF796
:1063A8007AFE204610BDF0B5037D062B8DB00E4653
:1063B80000F104074FF0000402D000F1080518E0CE
:1063C8000CAD394605F8304D2F232A460A20FFF731
:1063D80049F8284601F0B4FB33680246DB682946D1
:1063E800304698470FE024B12E213046FFF7E4FEEF
:1063F800044415F8011D0A223046FFF70DFFBD427F
:106408000444F0D120460DB0F0BD000010B5054B96
:106418000446112240F8043B002101F060FB2046AD
:1064280010BD00BF907D0D000346074A10B543F824
:10643800042B01F1100251F8044B43F8044B91422C
:10644800F9D10A781A7010BD907D0D00037D042BD8
:1064580001D1406808E0062B0AD1436853B183682C
:1064680043B1C36833B10069003018BF01207047D9
:10647800002070471846704710B59DF8084044EA58
:10648800032343EA024242EA01610423416003759F
:1064980010BD37B50D788B784A78C97800912946B0
:1064A800FFF7EAFF03B030BD417470477047002121
:1064B800007CFFF7DFB80121007CFFF7DBB8007C28
:1064C800FFF7D0B8007CFFF7C5B838B50446007CA4
:1064D8000D46FFF7C7F8002801DC607C20B129468B
:1064E800207CFFF7CFF8012038BD007CFFF7D2B839
:1064F80010B50446FDF7CFFD204610BD10B5044683
:10650800002363604FF47A73A360054B2360012373
:106518000846217463741146FFF794F8204610BDAD
:10652800A47D0D0010B514220446002101F0D7FA0D
:10653800204610BD30B50E4D87B001A8FFF7F2FF19
:10654800296811F0010410D12846FDF7A8FD60B1B3
:1065580001AA21460748FFF7D1FF2846FDF7A4FD09
:10656800054A0649034800F075FB024807B030BDEC
:1065780004E4032008E4032038E30320B5640D0095
:10658800704741747047007CFEF7CCBF007CFEF773
:10659800A1BF007CFEF7AEBF007CFEF7A3BF007C66
:1065A800FEF7B0BF10B50446FDF775FD204610BDD7
:1065B80070B5457C04460E4625B9007CFEF7B2FF4F
:1065C800002805DD3146207CBDE87040FEF77ABF23
:1065D800284670BD10B50446084611460022626080
:1065E8004FF47A72A260054A226001222074627414
:1065F8001A46FEF75FFF204610BD00BFD47D0D0090
:10660800007CFEF787BF000038B50C4D296811F0F3
:10661800010411D12846FDF742FD68B1084A094B2B
:1066280009482146FFF7D6FF2846FDF73DFD074AF2
:106638000749054800F00EFB034838BDB4E40320C1
:10664800B8E4032030E403201CE4032038E30320EB
:1066580089650D007047F8B5064615460C468F1833
:10666800BC4206D0336814F8011B9B683046984733
:10667800F6E72846F8BD0022007CFEF77BBF002124
:10668800007CFEF77FBF0021007CFEF783BF00215E
:10669800007CFEF787BF0021007CFEF78BBF10B59A
:1066A8000446FDF7F8FC204610BD000010B504466E
:1066B8004FF47A730846A3600021044B207461608C
:1066C8002360FEF787FF204610BD00BF047E0D0043
:1066D80000231A461946007CFEF72CBF13B5002488
:1066E800007C0094FEF72EFFC0B202B010BD01235B
:1066F800FFF7F4BF0022007CFEF72CBF0022007CCD
:10670800FEF730BF0121FFF7F9BF0021007CFEF73B
:1067180059BF002211464068FFF748B800221146C9
:106728004068FFF753B800224068FFF747B80022D7
:1067380081F001014068FFF731B800231A46194675
:106748004068FFF723B800231A4619464068FFF748
:1067580015B8002211464068FFF708B80022114614
:106768004068FEF7F3BF002202214068FEF7F6BF3B
:1067780000231A464068FEF7E1BF10B103685B6862
:106788001847704738B504460068D0B1FEF7F2FDE7
:10679800B8B9237C1BB9206808B1FEF7FBFD656812
:1067A80055B1AB681BB103222946284698472846AD
:1067B800FDF771FC002363602068FEF7F3FD0023FA
:1067C800236038BD38B50B4B03600446D0F8CC01C4
:1067D80008B1FDF762FCD4F8C4512DB12846FFF783
:1067E800D1FF2846FDF757FCA06808B1FFF7C5FFA1
:1067F800204638BD2C7E0D000068FEF71BBE000049
:1068080030B58DB004461122002101A801F067F9C6
:10681800062301AA09498DF814300A20FEF72AFE3A
:1068280007AD01A906A8FFF7FFFD0FCD04340FC47B
:106838002B68237000200DB030BD00BF587E0D00BE
:1068480030B5044689B000F5E070FFF7D5FF23683E
:1068580083BB4C20FDF71BFC054608B1FFF760FB26
:106868002068256008B1FFF788FF206820B3002260
:106878004FF49A61FFF783FB08A9002501F8195D19
:106888001148FEF73FFD20689DF80720036849F28C
:1068980069011B6A984702A8FFF7B8FD02A8FFF72D
:1068A800AFFF002804DB02A92068FFF7D0FB04E053
:1068B800054602E0002500E0044DD4F8C001FEF7CB
:1068C800C1FD284609B030BD657E0D00FCFEFFFF06
:1068D8002DE9F04705468CB016460F4609B10B78EE
:1068E8000BB9354C64E0084601F02AF98046002EC1
:1068F8005CD0304601F024F9441C08F1020323441B
:10690800B3F59A6F4FD805F5E070FFF775FF284685
:10691800FFF796FF002840DB6846FFF777FD6846DB
:10692800FFF76EFF002838DBD5F800A0DAF8003052
:106938000DF1040CD3F83890204B0693BCE80F00F7
:106948000DF11C0EAEE80F00DCF800308EF80030B8
:1069580049F2690206A95046C84700281DDB0023F2
:1069680028688DF8183003680122DB6806A9984763
:106978002868036808F10102DB68394698472CB19A
:10698800286803682246DB68314698472868036808
:106998001B6C984700EAE07400E00446D5F8C00193
:1069A800FEF750FD04E06FF0BD0401E03446A4E7B3
:1069B80020460CB0BDE8F087F2FEFFFF907D0D0089
:1069C80038B50D4C0D4B23600025022304F5E47007
:1069D8006360A560C4F8C451C4F8C851FEF722FD2D
:1069E800074BC4F8CC5123602046064A0649BDE847
:1069F800384000F02FB900BF3CE50320907E0D0021
:106A08002C7E0D0038E30320CD670D0000231A46C5
:106A18004068FEF793BE002202214068FEF79EBE42
:106A2800002211464068FEF791BE002211464068D8
:106A3800FEF79CBE00231A4619464068FEF79EBE24
:106A480000231A4619464068FEF7A0BE002281F0CE
:106A580001014068FEF7A2BE00224068FEF7AEBE04
:106A6800002211464068FEF7B1BE00221146406878
:106A7800FEF79CBE70B58CB014460646FFF7C6FC00
:106A88000CAB0022114643F8302D2046FEF7CAFB16
:106A9800014658BB009B4BB35A68022A0ED00A2AFB
:106AA80024D15C69112201A801F019F806238DF898
:106AB800143001AD04F10803183405E05969304673
:106AC8000431FFF7E6FC11E0186859682A4603C24A
:106AD8000833A3421546F7D101A906A807ADFFF769
:106AE800A3FC0FCD341D0FC42B6823700098FEF74C
:106AF80091FB30460CB070BD024B034A1A6000226D
:106B08005A6070470CE70320907E0D0010B50446CC
:106B18000F48FEF753FF28B1A4F10B03022B01D84D
:106B2800002010BD00F076F8FFF7EFFD08B1012C4A
:106B3800F6D9FFF769FDFFF763FD18B1A4F1090362
:106B4800012BEDD91E2C8CBF0020012010BD00BFE9
:106B580014E703201E2838B504460D460AD8FF2935
:106B680008D0FFF7D3FF28B129462046BDE83840B2
:106B7800FEF768BB38BD38B504460D46FEF76AFB1C
:106B8800FF2810D0062804D84D2323FA00F0C307A5
:106B980009D42046FFF7BAFF28B129462046BDE8A8
:106BA8003840FEF75FBB38BD10B50446FEF752FB10
:106BB8000438C0B2012808D92046FFF7A7FF20B142
:106BC8002046BDE81040FEF755BB002010BD000070
:106BD80070B50C4C0C4E0D4D00212046FEF76CFE96
:106BE80020460B4C3246294600F034F80121204655
:106BF800FEF762FE324629462046BDE8704000F0A6
:106C080029B800BF14E7032038E30320B1580D006A
:106C180024E7032038B50B4D296811F001040FD182
:106C28002846FDF73CFA58B121460748FFF73EFDD4
:106C38002846FDF739FA054A0549034800F00AF8DD
:106C4800014838BD38E703203CE7032038E3032038
:106C58005D660D000B460146184600F027BF000090
:106C6800184B1A68D1075CBF01221A60164B1A68C4
:106C7800D2075CBF01221A60144B1A68D0075CBFA8
:106C880001221A60124B1A68D1075CBF01221A60F0
:106C9800104B1A68D2075CBF01221A600E4B1A68A3
:106CA800D0075CBF01221A600C4B1A68D1075CBF81
:106CB80001221A600A4B1A68D2075CBF01221A60C7
:106CC800704700BF6CE7032068E7032064E70320F0
:106CD80060E703205CE7032058E7032054E703201C
:106CE80050E70320244B1A68D0075CBF01221A60C2
:106CF800224B1A68D1075CBF01221A60204B1A6820
:106D0800D2075CBF01221A601E4B1A68D0075CBF0D
:106D180001221A601C4B1A68D1075CBF01221A6055
:106D28001A4B1A68D2075CBF01221A60184B1A68FE
:106D3800D0075CBF01221A60164B1A68D1075CBFE6
:106D480001221A60144B1A68D2075CBF01221A602C
:106D5800124B1A68D0075CBF01221A60104B1A68E0
:106D6800D1075CBF01221A600E4B1A68D2075CBFBC
:106D780001221A60704700BF9CE7032098E70320B0
:106D880094E7032090E703208CE7032088E703209B
:106D980084E7032080E703207CE7032078E70320CB
:106DA80074E7032070E70320244B1A68D0075CBF00
:106DB80001221A60224B1A68D1075CBF01221A60AF
:106DC800204B1A68D2075CBF01221A601E4B1A6852
:106DD800D0075CBF01221A601C4B1A68D1075CBF40
:106DE80001221A601A4B1A68D2075CBF01221A6086
:106DF800184B1A68D0075CBF01221A60164B1A6834
:106E0800D1075CBF01221A60144B1A68D2075CBF15
:106E180001221A60124B1A68D0075CBF01221A605F
:106E2800104B1A68D1075CBF01221A600E4B1A6812
:106E3800D2075CBF01221A60704700BFCCE703206D
:106E4800C8E70320C4E70320C0E70320BCE703200A
:106E5800B8E70320B4E70320B0E70320ACE703203A
:106E6800A8E70320A4E70320A0E70320184B1A682B
:106E7800D1075CBF01221A60164B1A68D2075CBFA3
:106E880001221A60144B1A68D0075CBF01221A60ED
:106E9800124B1A68D1075CBF01221A60104B1A689E
:106EA800D2075CBF01221A600E4B1A68D0075CBF7C
:106EB80001221A600C4B1A68D1075CBF01221A60C4
:106EC8000A4B1A68D2075CBF01221A60704700BFDC
:106ED800ECE70320E8E70320E4E70320E0E70320EA
:106EE800DCE70320D8E70320D4E70320D0E703201A
:106EF80081F0004102E000BF83F0004330B54FEA63
:106F080041044FEA430594EA050F08BF90EA020FCF
:106F18001FBF54EA000C55EA020C7FEA645C7FEA62
:106F2800655C00F0E2804FEA5454D4EB5555B8BF85
:106F38006D420CDD2C4480EA020281EA030382EAF6
:106F4800000083EA010180EA020281EA0303362D88
:106F580088BF30BD11F0004F4FEA01314FF4801C5B
:106F68004CEA113102D0404261EB410113F0004F6D
:106F78004FEA03334CEA133302D0524263EB430324
:106F880094EA050F00F0A780A4F10104D5F1200EC2
:106F98000DDB02FA0EFC22FA05F2801841F100011D
:106FA80003FA0EF2801843FA05F359410EE0A5F1F1
:106FB80020050EF1200E012A03FA0EFC28BF4CF022
:106FC800020C43FA05F3C01851EBE37101F00045D8
:106FD80007D54FF0000EDCF1000C7EEB00006EEBE5
:106FE8000101B1F5801F1BD3B1F5001F0CD349086F
:106FF8005FEA30004FEA3C0C04F101044FEA4452C6
:1070080012F5800F80F09A80BCF1004F08BF5FEA4C
:10701800500C50F1000041EB045141EA050130BD2C
:107028005FEA4C0C404141EB010111F4801FA4F1CF
:107038000104E9D191F0000F04BF01460020B1FA24
:1070480081F308BF2033A3F10B03B3F120020CDA5C
:107058000C3208DD02F1140CC2F10C0201FA0CF03A
:1070680021FA02F10CE002F11402D8BFC2F1200C9F
:1070780001FA02F120FA0CFCDCBF41EA0C01904055
:10708800E41AA2BF01EB0451294330BD6FEA04049E
:107098001F3C1CDA0C340EDC04F11404C4F1200289
:1070A80020FA04F001FA02F340EA030021FA04F39B
:1070B80045EA030130BDC4F10C04C4F1200220FAF2
:1070C80002F001FA04F340EA0300294630BD21FA30
:1070D80004F0294630BD94F0000F83F4801306BFF6
:1070E80081F480110134013D4EE77FEA645C18BFEA
:1070F8007FEA655C29D094EA050F08BF90EA020F81
:1071080005D054EA000C04BF1946104630BD91EA78
:10711800030F1EBF0021002030BD5FEA545C05D17B
:107128004000494128BF41F0004130BD14F58004BA
:107138003CBF01F5801130BD01F0004545F0FE412E
:1071480041F470014FF0000030BD7FEA645C1ABF63
:10715800194610467FEA655C1CBF0B46024650EA9A
:10716800013406BF52EA033591EA030F41F40021C6
:1071780030BD00BF90F0000F04BF0021704730B54C
:107188004FF4806404F132044FF000054FF0000121
:1071980050E700BF90F0000F04BF0021704730B5E2
:1071A8004FF4806404F1320410F0004548BF4042B7
:1071B8004FF000013EE700BF42004FEAE2014FEA0C
:1071C80031014FEA02701FBF12F07F4393F07F4FE7
:1071D80081F06051704792F0000F14BF93F07F4F19
:1071E800704730B54FF4607401F0004521F000415C
:1071F80020E700BF50EA010208BF704730B54FF0E2
:1072080000050AE050EA010208BF704730B511F0E6
:10721800004502D5404261EB41014FF4806404F11E
:1072280032045FEA915C3FF4DCAE4FF003025FEAA0
:10723800DC0C18BF03325FEADC0C18BF033202EB28
:10724800DC02C2F1200300FA03FC20FA02F001FA82
:1072580003FE40EA0E0021FA02F11444C1E600BF21
:1072680070B54FF0FF0C4CF4E06C1CEA11541DBFD4
:107278001CEA135594EA0C0F95EA0C0F00F0DEF89F
:107288002C4481EA030621EA4C5123EA4C5350EA84
:10729800013518BF52EA033541F4801143F48013D5
:1072A80038D0A0FB02CE4FF00005E1FB02E506F066
:1072B8000042E0FB03E54FF00006E1FB03569CF0BB
:1072C800000F18BF4EF0010EA4F1FF04B6F5007FC1
:1072D80064F5407404D25FEA4E0E6D4146EB060633
:1072E80042EAC62141EA55514FEAC52040EA5E50BC
:1072F8004FEACE2EB4F1FD0C88BFBCF5E06F1ED866
:10730800BEF1004F08BF5FEA500E50F1000041EB9C
:10731800045170BD06F0004646EA010140EA020049
:1073280081EA0301B4EB5C04C2BFD4EB0C0541EA6B
:10733800045170BD41F480114FF0000E013C00F380
:10734800AB8014F1360FDEBF002001F0004170BDA4
:10735800C4F10004203C35DA0C341BDC04F11404BD
:10736800C4F1200500FA05F320FA04F001FA05F249
:1073780040EA020001F0004221F0004110EBD37016
:1073880021FA04F642EB06015EEA430E08BF20EA42
:10739800D37070BDC4F10C04C4F1200500FA04F3E5
:1073A80020FA05F001FA04F240EA020001F0004177
:1073B80010EBD37041F100015EEA430E08BF20EAEA
:1073C800D37070BDC4F1200500FA05F24EEA020E32
:1073D80020FA04F301FA05F243EA020321FA04F061
:1073E80001F0004121FA04F220EA020000EBD37018
:1073F8005EEA430E08BF20EAD37070BD94F0000F18
:107408000FD101F00046400041EB010111F4801F4B
:1074180008BF013CF7D041EA060195F0000F18BFFC
:10742800704703F00046520043EB030313F4801F38
:1074380008BF013DF7D043EA0603704794EA0C0FF2
:107448000CEA135518BF95EA0C0F0CD050EA410608
:1074580018BF52EA4306D1D181EA030101F0004185
:107468004FF0000070BD50EA410606BF10461946AD
:1074780052EA430619D094EA0C0F02D150EA0136B9
:1074880013D195EA0C0F05D152EA03361CBF1046FA
:1074980019460AD181EA030101F0004141F0FE4199
:1074A80041F470014FF0000070BD41F0FE4141F41D
:1074B800780170BD70B54FF0FF0C4CF4E06C1CEA1D
:1074C80011541DBF1CEA135594EA0C0F95EA0C0FD2
:1074D80000F0A7F8A4EB050481EA030E52EA03358D
:1074E8004FEA013100F088804FEA03334FF08055AE
:1074F80045EA131343EA12634FEA022245EA1115DB
:1075080045EA10654FEA00260EF000419D4208BF8B
:10751800964244F1FD0404F5407402D25B084FEA38
:107528003202B61A65EB03055B084FEA32024FF4E4
:1075380080104FF4002CB6EB020E75EB030E22BF41
:10754800B61A754640EA0C005B084FEA3202B6EB01
:10755800020E75EB030E22BFB61A754640EA5C00B0
:107568005B084FEA3202B6EB020E75EB030E22BF40
:10757800B61A754640EA9C005B084FEA3202B6EB41
:10758800020E75EB030E22BFB61A754640EADC0000
:1075980055EA060E18D04FEA051545EA16754FEA62
:1075A80006164FEAC30343EA52734FEAC2025FEA80
:1075B8001C1CC0D111F4801F0BD141EA00014FF00F
:1075C80000004FF0004CB6E711F4801F04BF0143E0
:1075D8000020B4F1FD0C88BFBCF5E06F3FF6AFAEFC
:1075E800B5EB030C04BFB6EB020C5FEA500C50F18C
:1075F800000041EB045170BD0EF0004E4EEA11310F
:1076080014EB5C04C2BFD4EB0C0541EA045170BD15
:1076180041F480114FF0000E013C90E645EA060E59
:107628008DE60CEA135594EA0C0F08BF95EA0C0F87
:107638003FF43BAF94EA0C0F0AD150EA01347FF4CF
:1076480034AF95EA0C0F7FF425AF104619462CE7A6
:1076580095EA0C0F06D152EA03353FF4FDAE104609
:10766800194622E750EA410618BF52EA43067FF45A
:10767800C5AE50EA41047FF40DAF52EA43057FF4EA
:10768800EBAE12E74FEA4102B2F1E04324BFB3F593
:10769800001CDCF1FE5C0DD901F0004C4FEAC00281
:1076A8004CEA5070B2F1004F40EB830008BF20F065
:1076B8000100704711F0804F21D113F13872BCBF1F
:1076C80001F00040704741F480114FEA5252C2F174
:1076D8001802C2F1200C10FA0CF320FA02F018BFBD
:1076E80040F001004FEAC1234FEAD32303FA0CFC10
:1076F80040EA0C0023FA02F34FEA4303CCE77FEA9F
:10770800625307D150EA01331EBF4FF0FE4040F4E8
:107718004000704701F0004040F0FE4040F4000097
:10772800704700BF7BB972B90029BEBF00204FF077
:10773800004106E008BF00281CBF6FF000414FF071
:10774800FF3000F0B1B9ADF1080C6DE904CE0029A5
:1077580009DB002B1ADB00F035F8DDF804E0DDE981
:10776800022304B07047404261EB4101002B1BDB50
:1077780000F028F8DDF804E0DDE9022304B0404217
:1077880061EB4101524263EB43037047524263EBA2
:10779800430300F017F8DDF804E0DDE9022304B044
:1077A800404261EB41017047524263EB430300F0F2
:1077B80009F8DDF804E0DDE9022304B0524263EB86
:1077C800430370472DE9F0478C460E460446089D52
:1077D800002B50D18A4217466CD9B2FA82FEBEF10C
:1077E800000F0BD0CEF1200420FA04F401FA0EF6B3
:1077F80044EA060C02FA0EF700FA0EF44FEA1749AB
:10780800220CBCFBF9F01FFA87F809FB10C642EA04
:10781800064600FB08F3B34209D9F61900F1FF3216
:1078280080F02281B34240F21F8102383E44F61AAA
:10783800A2B2B6FBF9F309FB136642EA064403FB5E
:1078480008F8A04509D9E41903F1FF3280F00A814C
:10785800A04540F20781023B3C44C8EB040443EADC
:1078680000400021002D62D024FA0EF400232C6081
:107878006B60BDE8F0878B4207D9002D55D00021F9
:1078880085E841000846BDE8F087B3FA83F100298E
:1078980040F09080B34202D3824200F2F880841A0A
:1078A80066EB03060120B446002D40D085E8101091
:1078B800BDE8F08712B90127B7FBF2F7B7FA87FEE0
:1078C800BEF1000F35D1F31B4FEA17481FFA87FCAA
:1078D8000121B3FBF8F0220C08FB103642EA0646F9
:1078E8000CFB00F3B34207D9F61900F1FF3202D2BC
:1078F800B34200F2CE801046F61AA2B2B6FBF8F3F5
:1079080008FB136642EA06440CFB03FCA44507D9AE
:10791800E41903F1FF3202D2A44500F2B580134600
:10792800CCEB040443EA00409CE729462846BDE81E
:10793800F087CEF1200106FA0EF307FA0EF720FAC7
:1079480001F94FEA1748CE4049EA0309B6FBF8FAAD
:107958004FEA194408FB1A661FFA87FC44EA0643F3
:107968000AFB0CF29A4200FA0EF40AD9DB190AF162
:10797800FF3180F087809A4240F28480AAF1020A9F
:107988003B449B1A1FFA89F9B3FBF8F108FB113342
:1079980049EA034301FB0CF69E4207D9DB1901F1C2
:1079A800FF326BD29E4269D902393B449B1B41EAA4
:1079B8000A418EE7C1F1200E22FA0EF48B402343D0
:1079C80020FA0EF706FA01F44FEA134C26FA0EF6DF
:1079D8003C43B6FBFCF9270C0CFB19661FFA83F82D
:1079E80047EA064609FB08F7B74202FA01F200FA2D
:1079F80001FA08D9F61809F1FF3041D2B7423FD948
:107A0800A9F102091E44F61BA0B2B6FBFCF40CFB5C
:107A1800146640EA064704FB08F8B84507D9FF187A
:107A280004F1FF3028D2B84526D9023C1F4444EA65
:107A38000940C8EB0707A0FB02894F4544464E465C
:107A480014D329D065B3BAEB040367EB060707FA2A
:107A58000EFECB40CF404EEA030385E888000021A4
:107A6800BDE8F0871346F8E61046E0E6B8EB0204F6
:107A780069EB03060138E5E70446D8E7114695E7C0
:107A88008146C0E78A467CE7023B3C4448E7084613
:107A98000AE702383E442FE7C245E7D33E46D1E71E
:107AA8002946BDE8F08700BF704700BF10B5054CF8
:107AB80013462CB10A4601460220AFF3008010BDE0
:107AC800204610BD0000000010B5431E0A44914234
:107AD80004D011F8014B03F8014FF8E710BD024438
:107AE8000346934202D003F8011BFAE770470000EF
:107AF80038B5124B1C68A36B0546D3B91820FDF79F
:107B080075FE43F20E33A06303804AF6CD334380FB
:107B180041F2342383804EF26D63C3804DF6EC63EB
:107B28000381052343810B23838101220023C0E9BC
:107B38000423A36B00221D615A6138BD34E303207E
:107B4800034613F8012B002AFBD1181A0138704795
:107B58001D400D0059400D0085400D0089400D0065
:107B680000000000000102040810000000000000EE
:107B780000000000594C0D00A14C0D00814B0D0078
:107B88004661696C656420746F20706572666F72F7
:107B98006D2072656164696E672E004C6F67007BAB
:107BA8002274656D7065726174757265223A252E4E
:107BB80031667D0053656E736F720000000000002F
:107BC8000000000093580D0089580D007F580D00E3
:107BD80075580D0069580D005D580D0051580D007D
:107BE80049580D003F580D0035580D007D6A0D00AD
:107BF8000000000000000000B1580D00B3580D004F
:107C0800000810182028303800000000000000008C
:107C180021600D0045600D00055A0D002F5B0D0019
:107C2800FD590D001B5A0D00395A0D00535A0D000D
:107C3800775A0D00135B0D00155E0D00B55B0D0046
:107C4800355D0D00E5590D00BB5F0D00B95C0D00F9
:107C5800ED5B0D00E95F0D00595B0D00F3590D0058
:107C6800955B0D00F9590D00555A0D00F0FFFFFF07
:107C7800000000006F5A0D0066006C6E00666E0012
:107C8800636F64650064657461696C000D0A0025A2
:107C98003031307520005D20002C200028293A2042
:107CA80000205B00636F6465203D20002569006447
:107CB800657461696C73203D2000626175640053CE
:107CC800657269616C0053657269616C3100747921
:107CD800706500706172616D00636D6400696400B5
:107CE800686E64007374726D0066696C74006C76FB
:107CF8006C0061646448616E646C65720072656DE5
:107D08006F766548616E646C657200656E756D4866
:107D1800616E646C657273004A534F4E537472659A
:107D2800616D4C6F6748616E646C6572006170705C
:107D3800006E6F6E6500747261636500696E666FD0
:107D4800007761726E006572726F720070616E69A1
:107D58006300616C6C005A00252B3033643A25307F
:107D680032750025592D256D2D25645425483A2551
:107D78004D3A2553257A0061736374696D65000077
:107D88000000000000000000AF630D00A1630D00BB
:107D9800A3630D000000000000000000B5640D00A2
:107DA800F9640D00D3640D0075610D00CD640D00FC
:107DB800B7640D00BF640D00F3640D00C7640D00C7
:107DC800B1640D00000000000000000089650D008E
:107DD800AD650D00B9650D0075610D0095650D0067
:107DE800A1650D009B650D00A7650D008B650D0055
:107DF8008F650D0000000000000000005D660D00AA
:107E0800A7660D007F660D005F660D0087660D0092
:107E18008F660D0097660D009F660D00000000003C
:107E28000000000079670D006F670D0065670D00A1
:107E38005B670D004F670D0043670D0037670D0046
:107E48002F670D0025670D001B670D007D6A0D006B
:107E5800666630333A3A313A31303031007468313D
:107E6800006D65736870756200776972696E670086
:107E78007061727365207061636B6574202564009E
:107E88000000000000000000156A0D001F6A0D00C8
:107E9800296A0D00336A0D003D6A0D00496A0D001C
:107EA800556A0D00616A0D00696A0D00736A0D005C
:107EB8007D6A0D00000000000000000000000000C6
:107EC80000000000000000000000000000000000AA
:107ED800000000000000000000000000000000009A
:107EE800000000000000000000000000000000008A
:107EF800000000000000000000000000000000007A
:107F08000000000000000000000000000000000069
:107F180000000000430000004D4D0D0019520D00F7
:107F28009D580D00CD590D0025620D0035620D00DC
:107F3800A1620D00C9690D00016B0D00D96B0D0020
:107F4800696C0D00ED6C0D00B16D0D00756E0D00C6
:087F5800000000000000000021
:087F60006CF8FF7F0100000036
:107F6800FFFFFF7FFFFFFF7FFFFFFF7FFFFFFF7F19
:107F7800FFFFFF7FEA51B87EFFFFFF7F21DBF97E1D
:107F8800FFFFFF7FFFFFFF7FC776BE7FF4285C7F80
:107F9800FFFFFF7FEA51B87EFFFFFF7FFFFFFF7FF4
:107FA800000024F40000127A0000093D0080841EBD
:107FB800FF583E0F548C93070090D0031038EC0103
:107FC8009062F40000127A0000093D0080841E00CF
:107FD80040420F0020A1070090D0030048E80100AC
:107FE8007F7D0D0000000000BC7E0D00DC7E0D00D2
:107FF800FC7E0D00000000000000000000000000F2
:10800800000000001C7F0D000000000000000000C0
:108018000000000000000000000000000000000058
:108028000000000000000000000000000000000048
:108038000000000000000000000000000000000038
:0880480000000000D4E2032057
:10805000FFFFFFFF00000102030405060708090AED
:108060000B0C0D0E0F101112131415161718191AE8
:088070001B1C1D1E1F2028002F
:0480780078563412F0
:04000003D0004018D1
:00000001FF
